:020000040800F2
:1000000000000320F5470008094500080F450008D7
:10001000154500081B4500082145000800000000A8
:10002000000000000000000000000000274500085C
:100030003545000800000000434500085145000810
:10004000454800084548000845480008454800085C
:1000500045480008454800085D4500084548000837
:10006000454800084548000845480008454800083C
:10007000454800084548000845480008454800082C
:1000800045480008454800086D45000845480008F7
:1000900045480008454800084548000895450008BF
:1000A000A5450008B9450008CD45000845480008A9
:1000B000E145000845480008454800084548000853
:1000C000454800084548000845480008F54500082F
:1000D00045480008454800084548000845480008CC
:1000E00045480008454800084548000845480008BC
:1000F00045480008094600084548000845480008EA
:10010000454800084548000845480008454800089B
:1001100045480008454800081D46000831460008CB
:10012000454800084548000845480008454800087B
:10013000454800084548000845480008454800086B
:10014000454800084548000845480008454800085B
:10015000454800084548000845480008454800084B
:10016000454800084548000845480008454800083B
:1001700045480008454800084548000800000000C0
:10018000454800084548000845480008454800081B
:10019000454800084548000845480008454800080B
:0C01A00045480008454800084548000894
:1001B00010B5054C237833B9044B13B10448AFF3A1
:1001C00000800123237010BD3802002000000000D1
:1001D0005407010808B5034B1BB103490348AFF3AB
:1001E000008008BD000000003C0200205407010808
:1001F000034613F8012B002AFBD1181A0138704767
:1002000001F0FF01102A2BDB10F0070F08D010F8C7
:10021000013B013A8B422DD010F0070F42B3F6D1CB
:10022000F0B441EA012141EA014122F007047FF0E4
:1002300000070023F0E80256083C85EA010586EA3B
:10024000010685FA47F5A3FA87F586FA47F6A5FA77
:1002500087F68EB9EED1F0BC01F0FF0102F0070283
:1002600032B110F8013B013A83EA010313B1F8D12E
:100270000020704701387047002D06BF354603380F
:10028000073815F0010F07D1013015F4807F02BF48
:10029000013015F4C03F0130F0BC0138704700BF99
:1002A00081F0004102E000BF83F0004330B54FEA27
:1002B00041044FEA430594EA050F08BF90EA020F94
:1002C0001FBF54EA000C55EA020C7FEA645C7FEA27
:1002D000655C00F0E2804FEA5454D4EB5555B8BF4A
:1002E0006D420CDD2C4480EA020281EA030382EABB
:1002F000000083EA010180EA020281EA0303362D4D
:1003000088BF30BD11F0004F4FEA01314FF4801C1F
:100310004CEA113102D0404261EB410113F0004F31
:100320004FEA03334CEA133302D0524263EB4303E8
:1003300094EA050F00F0A780A4F10104D5F1200E86
:100340000DDB02FA0EFC22FA05F2801841F10001E1
:1003500003FA0EF2801843FA05F359410EE0A5F1B5
:1003600020050EF1200E012A03FA0EFC28BF4CF0E6
:10037000020C43FA05F3C01851EBE37101F000459C
:1003800007D54FF0000EDCF1000C7EEB00006EEBA9
:100390000101B1F5801F1BD3B1F5001F0CD3490833
:1003A0005FEA30004FEA3C0C04F101044FEA44528A
:1003B00012F5800F80F09A80BCF1004F08BF5FEA11
:1003C000500C50F1000041EB045141EA050130BDF1
:1003D0005FEA4C0C404141EB0101013C28BFB1F503
:1003E000801FE9D291F0000F04BF01460020B1FA4E
:1003F00081F308BF2033A3F10B03B3F120020CDA21
:100400000C3208DD02F1140CC2F10C0201FA0CF0FE
:1004100021FA02F10CE002F11402D8BFC2F1200C63
:1004200001FA02F120FA0CFCDCBF41EA0C01904019
:10043000E41AA2BF01EB0451294330BD6FEA040462
:100440001F3C1CDA0C340EDC04F11404C4F120024D
:1004500020FA04F001FA02F340EA030021FA04F35F
:1004600045EA030130BDC4F10C04C4F1200220FAB6
:1004700002F001FA04F340EA0300294630BD21FAF4
:1004800004F0294630BD94F0000F83F4801306BFBA
:1004900081F480110134013D4EE77FEA645C18BFAE
:1004A0007FEA655C29D094EA050F08BF90EA020F45
:1004B00005D054EA000C04BF1946104630BD91EA3D
:1004C000030F1EBF0021002030BD5FEA545C05D140
:1004D0004000494128BF41F0004130BD14F580047F
:1004E0003CBF01F5801130BD01F0004545F0FE41F3
:1004F00041F470014FF0000030BD7FEA645C1ABF28
:10050000194610467FEA655C1CBF0B46024650EA5E
:10051000013406BF52EA033591EA030F41F400218A
:1005200030BD00BF90F0000F04BF0021704730B510
:100530004FF4806404F132044FF000054FF00001E5
:1005400050E700BF90F0000F04BF0021704730B5A6
:100550004FF4806404F1320410F0004548BF40427B
:100560004FF000013EE700BF42004FEAE2014FEAD0
:1005700031014FEA02701FBF12F07F4393F07F4FAB
:1005800081F06051704732F07F4208BF704793F0AE
:100590007F4F04BF41F40021704730B54FF46074C1
:1005A00001F0004521F000411CE700BF50EA0102C4
:1005B00008BF704730B54FF000050AE050EA01026D
:1005C00008BF704730B511F0004502D5404261EBDD
:1005D00041014FF4806404F132045FEA915C3FF41E
:1005E000D8AE4FF003025FEADC0C18BF03325FEABB
:1005F000DC0C18BF033202EBDC02C2F1200300FA6C
:1006000003FC20FA02F001FA03FE40EA0E0021FA90
:1006100002F11444BDE600BF70B54FF0FF0C4CF47E
:10062000E06C1CEA11541DBF1CEA135594EA0C0F30
:1006300095EA0C0F00F0DEF82C4481EA030621EA6B
:100640004C5123EA4C5350EA013518BF52EA0335A6
:1006500041F4801143F4801338D0A0FB02CE4FF058
:100660000005E1FB02E506F00042E0FB03E54FF088
:100670000006E1FB03569CF0000F18BF4EF0010E80
:10068000A4F1FF04B6F5007F64F5407404D25FEA7C
:100690004E0E6D4146EB060642EAC62141EA55512F
:1006A0004FEAC52040EA5E504FEACE2EB4F1FD0C71
:1006B00088BFBCF5E06F1ED8BEF1004F08BF5FEAEF
:1006C000500E50F1000041EB045170BD06F00046A1
:1006D00046EA010140EA020081EA0301B4EB5C044E
:1006E000C2BFD4EB0C0541EA045170BD41F4801146
:1006F0004FF0000E013C00F3AB8014F1360FDEBF6B
:10070000002001F0004170BDC4F10004203C35DA46
:100710000C341BDC04F11404C4F1200500FA05F3C9
:1007200020FA04F001FA05F240EA020001F000426A
:1007300021F0004110EBD37021FA04F642EB0601E0
:100740005EEA430E08BF20EAD37070BDC4F10C040A
:10075000C4F1200500FA04F320FA05F001FA04F2CE
:1007600040EA020001F0004110EBD37041F10001BA
:100770005EEA430E08BF20EAD37070BDC4F12005C5
:1007800000FA05F24EEA020E20FA04F301FA05F22D
:1007900043EA020321FA04F001F0004121FA04F2D5
:1007A00020EA020000EBD3705EEA430E08BF20EAA5
:1007B000D37070BD94F0000F0FD101F000464000DF
:1007C00041EB010111F4801F08BF013CF7D041EA61
:1007D000060195F0000F18BF704703F00046520065
:1007E00043EB030313F4801F08BF013DF7D043EA36
:1007F0000603704794EA0C0F0CEA135518BF95EAEC
:100800000C0F0CD050EA410618BF52EA4306D1D172
:1008100081EA030101F000414FF0000070BD50EA91
:10082000410606BF1046194652EA430619D094EA1B
:100830000C0F02D150EA013613D195EA0C0F05D105
:1008400052EA03361CBF104619460AD181EA030159
:1008500001F0004141F0FE4141F470014FF0000011
:1008600070BD41F0FE4141F4780170BD70B54FF0AC
:10087000FF0C4CF4E06C1CEA11541DBF1CEA13552C
:1008800094EA0C0F95EA0C0F00F0A7F8A4EB05040E
:1008900081EA030E52EA03354FEA013100F0888005
:1008A0004FEA03334FF0805545EA131343EA1263CE
:1008B0004FEA022245EA111545EA10654FEA002683
:1008C0000EF000419D4208BF964244F1FD0404F53C
:1008D000407402D25B084FEA3202B61A65EB030598
:1008E0005B084FEA32024FF480104FF4002CB6EB55
:1008F000020E75EB030E22BFB61A754640EA0C00D5
:100900005B084FEA3202B6EB020E75EB030E22BF14
:10091000B61A754640EA5C005B084FEA3202B6EB55
:10092000020E75EB030E22BFB61A754640EA9C0014
:100930005B084FEA3202B6EB020E75EB030E22BFE4
:10094000B61A754640EADC0055EA060E18D04FEAA2
:10095000051545EA16754FEA06164FEAC30343EA42
:1009600052734FEAC2025FEA1C1CC0D111F4801F0F
:100970000BD141EA00014FF000004FF0004CB6E708
:1009800011F4801F04BF01430020B4F1FD0C88BFA7
:10099000BCF5E06F3FF6AFAEB5EB030C04BFB6EBB2
:1009A000020C5FEA500C50F1000041EB045170BDA5
:1009B0000EF0004E4EEA113114EB5C04C2BFD4EBD2
:1009C0000C0541EA045170BD41F480114FF0000E56
:1009D000013C90E645EA060E8DE60CEA135594EAD2
:1009E0000C0F08BF95EA0C0F3FF43BAF94EA0C0FD5
:1009F0000AD150EA01347FF434AF95EA0C0F7FF44A
:100A000025AF104619462CE795EA0C0F06D152EA9D
:100A100003353FF4FDAE1046194622E750EA410681
:100A200018BF52EA43067FF4C5AE50EA41047FF492
:100A30000DAF52EA43057FF4EBAE12E74FF0FF3CF7
:100A400006E000BF4FF0010C02E000BF4FF0010CC8
:100A50004DF804CD4FEA410C7FEA6C5C4FEA430C41
:100A600018BF7FEA6C5C1BD001B050EA410C0CBF90
:100A700052EA430C91EA030F02BF90EA020F0020F2
:100A8000704710F1000F91EA030F58BF994208BF59
:100A900090422CBFD8176FEAE37040F00100704716
:100AA0004FEA410C7FEA6C5C02D150EA013C07D16D
:100AB0004FEA430C7FEA6C5CD6D152EA033CD3D0B8
:100AC0005DF8040B704700BF8446104662468C46B2
:100AD0001946634600E000BF01B5FFF7B7FF0028E5
:100AE00048BF10F1000F01BD4DF808EDFFF7F4FF0E
:100AF0000CBF012000205DF808FB00BF4DF808ED99
:100B0000FFF7EAFF34BF012000205DF808FB00BFBB
:100B10004DF808EDFFF7E0FF94BF012000205DF8DD
:100B200008FB00BF4DF808EDFFF7CEFF94BF012092
:100B300000205DF808FB00BF4DF808EDFFF7C4FF8B
:100B400034BF012000205DF808FB00BF4FEA410CD4
:100B50007FEA6C5C02D150EA013C0AD14FEA430CB7
:100B60007FEA6C5C02D152EA033C02D14FF00000F4
:100B700070474FF0010070474FEA410212F5001232
:100B800015D211D56FF47873B3EB625212D94FEAD4
:100B9000C12343F0004343EA505311F0004F23FABE
:100BA00002F018BF404270474FF00000704750EA13
:100BB000013005D111F0004008BF6FF000407047D0
:100BC0004FF00000704700BF4A0011D212F500122A
:100BD00011D20DD56FF47873B3EB62520ED44FEA95
:100BE000C12343F0004343EA505323FA02F0704715
:100BF0004FF00000704750EA013002D14FF0FF3053
:100C000070474FF0000070474FEA4102B2F1E043F5
:100C100024BFB3F5001CDCF1FE5C0DD901F0004CE3
:100C20004FEAC0024CEA5070B2F1004F40EB830033
:100C300008BF20F00100704711F0804F21D113F15F
:100C40003872BCBF01F00040704741F480114FEA98
:100C50005252C2F11802C2F1200C10FA0CF320FA21
:100C600002F018BF40F001004FEAC1234FEAD3233E
:100C700003FA0CFC40EA0C0023FA02F34FEA4303A8
:100C8000CCE77FEA625307D150EA01331EBF4FF031
:100C9000FE4040F44000704701F0004040F0FE404C
:100CA00040F40000704700BF53B94AB9002908BF9B
:100CB00000281CBF4FF0FF314FF0FF3000F0A4B907
:100CC000ADF1080C6DE904CE00F03CF8DDF804E06D
:100CD000DDE9022304B0704738B500220023044642
:100CE0000D46FFF70BFF28B920462946BDE83840DE
:100CF00000F00AB8204605F1004100F005F8404236
:100D000061EB410138BD00BFD0B50C4B0022064657
:100D10000F46FFF781FCFFF757FF0446FFF702FC81
:100D2000074B0022FFF778FC02460B463046394657
:100D3000FFF7BAFAFFF748FF2146D0BD0000F03DAB
:100D40000000F0412DE9F047089D04468C46002B39
:100D500040F083808A42174647D9B2FA82F242B104
:100D6000C2F1200024FA00F09140974040EA010CC3
:100D700094404FEA1748230CBCFBF8F61FFA87FE95
:100D800008FB16C143EA014306FB0EF1994209D95B
:100D9000FB1806F1FF3080F01981994240F216816C
:100DA000023E3B445B1AA4B2B3FBF8F008FB1033DD
:100DB00044EA034400FB0EFEA64509D93C1900F1A4
:100DC000FF3380F00581A64540F2028102383C44A1
:100DD00040EA0640A4EB0E0400261DB1D4400023D7
:100DE000C5E900433146BDE8F08702B9FFDEB2FA3B
:100DF00082F2002A50D1CB1B4FEA174E1FFA87F818
:100E00000126B3FBFEFC210C0EFB1C3341EA03411F
:100E100008FB0CF38B4207D979180CF1FF3002D292
:100E20008B4200F2E9808446C91AA3B2B1FBFEF0FE
:100E30000EFB101143EA014408FB00F8A04507D956
:100E40003C1900F1FF3302D2A04500F2D9801846C8
:100E5000A4EB080440EA0C40BFE78B4209D9002DFF
:100E600000F0B1800026C5E9000130463146BDE8FA
:100E7000F087B3FA83F6002E4AD18B4202D3824226
:100E800000F2B880841A61EB030101208C46002D2A
:100E9000A8D0C5E9004CA5E7C2F1200320FA03F66B
:100EA000974001FA02F04FEA174ED9403043030C45
:100EB000B1FBFEF61FFA87F80EFB161143EA014359
:100EC00006FB08F1994204FA02F409D9FB1806F16D
:100ED000FF3C80F08D80994240F28A80023E3B4484
:100EE0005B1A81B2B3FBFEF00EFB103341EA034103
:100EF00000FB08F38B4207D9791800F1FF3C73D24D
:100F00008B4271D902383944CB1A40EA064678E759
:100F1000C6F1200C03FA06F422FA0CF31C4320FA63
:100F20000CF701FA06F34FEA144E21FA0CF11F43B5
:100F30003B0CB1FBFEF91FFA84F80EFB191143EAD2
:100F4000014109FB08FA8A4502FA06F200FA06F3A3
:100F500008D9611809F1FF3048D28A4546D9A9F16C
:100F600002092144A1EB0A01BFB2B1FBFEF00EFB66
:100F7000101147EA014700FB08F8B84507D9E719FF
:100F800000F1FF312ED2B8452CD90238274440EA6F
:100F90000940A7EB0807A0FB02894F45C646494612
:100FA0001AD317D05DB1B3EB0E0267EB010707FA56
:100FB0000CFCF2404CEA0202F740C5E9002700268B
:100FC0003146BDE8F0872E4628460BE70646E9E69F
:100FD0001846FDE64345E5D2B8EB020E69EB040185
:100FE0000138DFE70846D2E760468DE78146B9E77A
:100FF000664675E730464AE7ACF1020C394413E720
:1010000002383C4424E700BF704700BF80B500AF02
:1010100001220221084804F025FD64230222A021B8
:10102000064805F0CFF90346002B01D1012300E06B
:101030000023184680BD00BF00180240AC0300200A
:1010400080B58AB004AFB9607A603B600346FB812B
:10105000314B1B78012B01D1002358E02E4B01228C
:101060001A7003F057FC3861002202212B4804F06B
:10107000F9FCFB8903F01F039BB2C3F12003FB8241
:10108000FB8A7A689A4201D27B68FB82FA896423E0
:101090000293FB8A0193BB6800931023A021204890
:1010A00004F070FE0346002B28D10A2003F03EFC1A
:1010B000FB8A7A68D31A7B60FB8ABA681344BB60E8
:1010C000FA89FB8A1344FB817B68002B09D101223A
:1010D0000221124804F0C6FC0F4B00221A700123B3
:1010E00015E003F017FC02463B69D31A3A689A42AE
:1010F000BFD8094B00221A70002308E00122022108
:10110000064804F0AFFC044B00221A700023184676
:101110001837BD4680BD00BF5402002000180240B1
:10112000AC03002080B588B004AFB9607A603B6042
:101130000346FB81154B1B78012B01D1002321E0D5
:10114000124B01221A7001220221114804F08AFC7C
:101150007B689BB2F9893A6802920193BB6800935D
:1011600010230A46A0210B4804F006FF0346002B7B
:1011700004D1064B00221A70012303E0034B002226
:101180001A70002318461037BD4680BD5402002057
:1011900000180240AC03002080B582B000AF786038
:1011A000391D4FF6FF730122034807F036FF7B68B5
:1011B00018460837BD4680BDF40500200000000039
:1011C0002DE9B04384B002AF03F03EFB00F00EFF08
:1011D00001F090FB01F0EAF801F0EEF901F052F9AC
:1011E00001F0A4F801F062F800F06AFF01F014F9D0
:1011F00001F0D0FA01F01CFB00F0B4FF01F004F89C
:1012000001F08CF901F00EFA01F07CFA01F09EFA7F
:1012100001F0E4FA01F03CFA012202218D4804F0C9
:1012200021FC03F0A7FB0121012005F0CFFD03F015
:10123000B1FB09F045F908F0B1FA0A2003F076FB9A
:10124000012008F083FF4FF6FF7008F0D3FB8248BF
:1012500008F056FF0A21052008F0E6FF4FF6FF715F
:10126000002008F05DFF7D4808F0BEFE4FF62053D9
:1012700001930523009364234FF48C7250211420B2
:1012800008F0A2FD764808F03BFF4FF62051002001
:1012900008F046FF78214B2008F0C6FF714808F09F
:1012A000A3FE6EE0012202216A4804F0DBFB03F09A
:1012B00061FB0121012005F089FD03F06BFB6A4B06
:1012C0001B78012B5AD1FA2003F030FB00237B60FE
:1012D00038E001224FF48071644804F0C3FB01221E
:1012E0004FF400715B4804F0BDFB01224FF4007124
:1012F0005E4804F0B7FB01224FF480615B4804F0C4
:10130000B1FB962003F012FB00224FF48071574886
:1013100004F0A8FB00224FF400714E4804F0A2FB39
:1013200000224FF40071514804F09CFB00224FF45E
:1013300080614E4804F096FBFA2003F0F7FA7B68D0
:1013400001337B607B68012BC3DD00220221414811
:1013500004F088FB464B00221A70464B1B680022A3
:101360005A62444807F0ACF902F0F2F8002240213A
:101370003E4804F077FB3C4B00221A703D4807F0D2
:101380000FFA3D4B1B78002B8CD13C4B00221A707E
:101390000721032002F094FB40F6B83003F0C6FAB0
:1013A00002F0A2F91421032002F08AFB012240215D
:1013B000334804F057FB01220821324804F052FB65
:1013C000314B01221A70314B00221A804FF6FF7008
:1013D00008F010FB4CF2186301930523009364237B
:1013E0004FF48C725021142008F0EEFC1C4808F0D9
:1013F00087FE4CF21861002008F092FE78214B2005
:1014000008F012FF224808F0EFFD4FF6FF7008F0D9
:10141000F1FA4FF6205301930523009364234FF410
:101420008C725021142008F0CFFC0D4808F068FEA3
:101430004FF62051002008F073FE78214B2008F071
:10144000F3FE144808F0D0FD0F4B01221A70002360
:10145000FB702EE0001402403400002070070108E9
:101460003C000020800701085A02002000080240CA
:1014700069020020F0080020100000206C0200200B
:10148000000C02400018024008050020DC06002085
:101490008C070108980701084FF47A7003F046FAA8
:1014A000FB780133FB70FB78052B02D9B74B002288
:1014B0001A70B64B1B78002BEED104F0DCF800223A
:1014C0000221B34804F0CEFAB24808F019FE0A210E
:1014D000052008F0A9FE4FF6FF71002008F020FE5D
:1014E000AD4808F081FD4FF6FF730093F0234FF4F1
:1014F000A0721E21002008F00BFC4EF21C73019319
:10150000052300931E23EE2228211E2008F05CFCF8
:10151000A04808F0F5FD4EF21C71002008F000FE16
:101520002D21142008F080FE9C4808F05DFD49F252
:10153000BF530193052300931E23702250211E20C8
:1015400008F042FC49F2BF51002008F0E9FD5521A6
:101550001E2008F069FE924808F046FD4EF25F73C7
:101560000193052300931E2370225021982008F038
:101570002BFC4EF25F71002008F0D2FD552198201F
:1015800008F052FE874808F02FFD4DF2F0730193EA
:10159000052300931E23F02278211E2008F014FC5E
:1015A0004DF2F071002008F0BBFD7D211E2008F0F7
:1015B0003BFE7D4808F018FD7C4807F081F87C4B25
:1015C00000221A807B4B00221A707B4B01221A707A
:1015D0007A4807F075F87A4807F072F8794807F00A
:1015E0006FF8794807F06CF8784B00221A700220E7
:1015F00001F08EFC754B1B78013B062BF4D801A241
:1016000052F823F0491F0008731E0008D11D00087E
:10161000E51B0008A51A0008091800082116000893
:1016200008216B4804F006FA0346012B03D1694BED
:1016300001221A7002E0674B00221A7001216648ED
:1016400004F0F8F90346012B03D1644B01221A7010
:1016500002E0624B00221A7008214D4804F0EAF9BA
:101660000346012B03D15E4B01221A7002E05C4B52
:1016700000221A704FF480715A4804F0DBF90346D7
:10168000012B03D1584B01221A7002E0564B002265
:101690001A704FF48041554804F0CCF90346012BF1
:1016A00002D1534B01221A70524B1B78002B0BD0E6
:1016B0004F4B00221A704F4B00221A7000224FF439
:1016C0008051334804F0CEF94FF40061424804F0F1
:1016D000B1F90346012B01D103F0CDFF444B1B7838
:1016E000012B16D1404B1B78012B12D101224FF454
:1016F0008051274804F0B6F9324807F051F83D4BC5
:1017000001221A7040F6B83003F010F92D4806F0A7
:10171000D7FF0821384804F08DF90346012B03D187
:10172000364B01221A7002E0344B00221A70344BFF
:1017300000221A708021164804F07CF90346012B20
:1017400005D12F4B1B780133DAB22D4B1A704FF4B1
:1017500000510F4804F06EF90346012B05D1284BC8
:101760001B780233DAB2264B1A7049F2BF510020BF
:1017700008F0D6FC5521722008F056FD204B1B784E
:101780001946204808F030FC00F014BC0805002081
:10179000001402403400002070070108A40701086B
:1017A000B8070108C4070108D00701084408002051
:1017B000640200200E0000203809002040090020AB
:1017C0000C050020E00600209007002055020020B4
:1017D000000002408502002000080240860200202E
:1017E0008702002000040240880200200018024006
:1017F000700200205B0200200010024084020020E2
:101800006A020020DC070108994803F017F96421F7
:10181000974803F0E5F90346002B5FD1944803F0A5
:10182000ABFB03469AB2934B1A80934B1B789AB248
:10183000904B1B889A4227D2904B1B78082B05D8D7
:101840008E4B1B780333DAB28C4B1A708B4B1B78A0
:10185000082B02D9894B09221A70894B1B78002B5F
:101860000AD0884B1B78002B06D0864B1B78013B97
:10187000DAB2844B1A7029E0814B1B78002B25D1FA
:10188000804B00221A7021E07D4B1B78002B0CD07E
:101890007C4B1A787C4B1B789A4206D2794B1B788A
:1018A0000133DAB2774B1A7006E0754B1B78002BC8
:1018B00002D1744B00221A70704B1B78002B05D09C
:1018C0006E4B1B78013BDAB26C4B1A706D4B1A7879
:1018D0006D4B1B789A4201D303F0CDFE674B1B780A
:1018E000082B5FD901224FF48071684804F0BAF8E0
:1018F000674B1B78002B25D0664B1B78012B21D022
:101900004EF25F730193052300931E237022502132
:10191000982008F059FA4EF25F71002008F000FCA0
:101920005521982008F080FC5B4808F05DFB5521AC
:10193000DE2008F079FC594808F056FB554B01228F
:101940001A7094E0524B1B78002B40F02983514BC6
:101950001B78022B00F024830A21022002F0B0F849
:101960004CF275430193052300931E2370225021EE
:10197000982008F029FA4CF27541002008F0D0FBBD
:101980005521982008F050FC434808F02DFB5521C4
:10199000DE2008F049FC414808F026FB3D4B0222BE
:1019A0001A70FDE2354B1B78002B40F0F9820022C3
:1019B0004FF48071354804F055F8354B1B78002BF7
:1019C00025D0344B1B78032B21D04EF25F7301934B
:1019D000052300931E2370225021982008F0F4F96B
:1019E0004EF25F71002008F09BFB5521982008F013
:1019F0001BFC294808F0F8FA5521DE2008F014FCF9
:101A0000274808F0F1FA234B03221A702FE0204BED
:101A10001B78002B40F0C4821E4B1B78042B00F077
:101A2000BF820A21022002F04BF84CF27543019369
:101A3000052300931E2370225021982008F0C4F93A
:101A40004CF27541002008F06BFB5521982008F0FE
:101A5000EBFB114808F0C8FA5521DE2008F0E4FB42
:101A60000F4808F0C1FA0B4B04221A7098E297E273
:101A7000380600207202002080020020820200202E
:101A800088020020830200201A0000200014024077
:101A9000840200206B020020C4070108E00701084F
:101AA000E4070108B44802F0C9FF6421B24803F01A
:101AB00097F80346002B60D1AF4803F05DFA034668
:101AC0009AB2AE4B1A80AD4B1B8807EE903AF8EEF7
:101AD000677A17EE900AFEF747FD4FF00002A84B19
:101AE000FEF7C4FE02460B4610461946A0A3D3E9F2
:101AF0000023FEF791FD02460B46104619464FF0B3
:101B00000002A04BFEF788FD02460B461046194620
:101B1000FFF77AF803469C4A13609B4B1B681846F4
:101B2000FEF722FD4FF00002984BFEF7BDFB024688
:101B30000B4690469946964B1B681846FEF714FDD7
:101B40004FF00002914BFEF7AFFB02460B464046BA
:101B50004946FEF78BFE02460B46104619464FF0EB
:101B600000028C4BFEF758FD02460B461046194604
:101B7000FFF74AF80346884A13604DF2F0710020DF
:101B800008F0CEFA7D21722008F04EFB7E4BD3ED9B
:101B9000007AB3EE0E7AF4EEC77AF1EE10FA00D4C2
:101BA00008E2794BD3ED007A9FED7C7AF4EEC77AA8
:101BB000F1EE10FA00DAFDE1774B1B681846FEF7EC
:101BC000D3FC80468946704B1B681846FEF7CCFC58
:101BD00002460B46CDE9002342464B46704808F0CA
:101BE00003FAE7E16F4B1B78012B40F0AE8001F068
:101BF00097FF6D4B00221A706C4BD3ED007AB3EE59
:101C0000037AF4EEC77AF1EE10FA48DB674BD3EDB6
:101C1000007A9FED677AF4EEC77AF1EE10FA03D5F9
:101C2000614B05221A703AE0604BD3ED007A9FEDCC
:101C3000617AF4EEC77AF1EE10FA03D55A4B04221A
:101C40001A702CE0594BD3ED007A9FED5B7AF4EEDD
:101C5000C77AF1EE10FA03D5534B03221A701EE037
:101C6000524BD3ED007A9FED557AF4EEC77AF1EE40
:101C700010FA03D54C4B02221A7010E04B4BD3EDF7
:101C8000007A9FED4F7AF4EEC77AF1EE10FA03D5A1
:101C9000454B01221A7002E0434B00221A70494B57
:101CA00000221A70484BD3ED007AB3EE037AF4EEBB
:101CB000C77AF1EE10FA48DB434BD3ED007A9FED83
:101CC0003C7AF4EEC77AF1EE10FA03D53D4B0522CB
:101CD0001A703AE03C4BD3ED007A9FED367AF4EE81
:101CE000C77AF1EE10FA03D5364B04221A702CE0B5
:101CF000354BD3ED007A9FED307AF4EEC77AF1EEF2
:101D000010FA03D52F4B03221A701EE02E4BD3ED91
:101D1000007A9FED2A7AF4EEC77AF1EE10FA03D535
:101D2000284B02221A7010E0274BD3ED007A9FED6A
:101D3000247AF4EEC77AF1EE10FA03D5214B012292
:101D40001A7002E01F4B00221A70174B1A781D4BB5
:101D50001B789A4204D2144B1A781C4B1A7029E152
:101D6000184B1A78194B1A7024E100BFAFF30080AA
:101D7000D7A3703D0AD709408006002076020020D4
:101D80000000B04000002440780200200080304075
:101D900014000020000059407C0200200000844113
:101DA000E8070108870200206E020020F0050020ED
:101DB0000000344200005C420000AA420000FA42E7
:101DC000000048436F0200208C0700206D020020B5
:101DD000794802F033FE6421774802F001FF0346A0
:101DE000002B23D1744803F0C7F803469AB2734B13
:101DF0001A80724B1B88B3F5966F0DD2704B1B780F
:101E00000333DAB26E4B1A706D4B1B78092B0DD968
:101E10006B4B09221A7009E0694B1B78002B05D027
:101E2000674B1B78013BDAB2654B1A70644B1B7829
:101E3000082B0CD901224FF40071624803F012FE06
:101E400001224FF48071604803F00CFEABE05C4B64
:101E50001B78002B40F0A78000224FF400715948F6
:101E600003F000FE00224FF48071574803F0FAFDA2
:101E700099E0564BD3E900014FF000024FF0000308
:101E8000FEF75AFE0346002B2BD0514B1B78184609
:101E9000FEF758FB4D4BD3E90023FEF72FFE034618
:101EA000002B00D182E04B4B1B78042B06D8494B0A
:101EB0001B780133DAB2474B1A7009E0454B1B78A7
:101EC000002B05D0434B1B78013BDAB2414B1A7013
:101ED000404B1B78052B69D10721012001F0F0FD53
:101EE00064E03A4BD3E90023144683F00045384BB5
:101EF0001B781846FEF726FB02460B46204629466D
:101F0000FEF71AFE0346002B00D14FE0314B1B7841
:101F1000042B06D82F4B1B780133DAB22D4B1A70E5
:101F200009E02C4B1B78002B05D02A4B1B78013B7A
:101F3000DAB2284B1A70274B1B78052B36D10721B4
:101F4000012001F0BDFD31E001F0EAF90346012B6B
:101F50002FD1214B1B681A46204921480AF0BEFBAD
:101F60004EF21C71002008F0DBF82D21682008F0EB
:101F70005BF91B4808F038F81A4B1B681A461A49D7
:101F800017480AF0ABFB4EF21C71002008F0C8F8AD
:101F90002D21D82008F048F9114808F025F808E06C
:101FA00000BFFFF721BB00BFFFF71EBB00BFFFF75D
:101FB0001BBB00BFFFF718BB6C040020740200209D
:101FC000810200200014024000080240500B002053
:101FD00012000020710200205C020020FC070108B2
:101FE000C8060020600200200408010880B594B0F3
:101FF00000AF07F1200330220021184609F058FCF9
:1020000007F10C0300221A605A609A60DA601A61C4
:102010000023BB60284B1B6C274A43F0805313649A
:10202000254B1B6C03F08053BB60BB6800237B60B7
:10203000224B1B68214A43F4404313601F4B1B682B
:1020400003F440437B607B6801233B624FF4A02391
:102050007B620223BB634FF48003FB6304233B6476
:10206000A8237B640223BB640423FB6407F12003E1
:10207000184604F0C7FE0346002B01D001F066FEAF
:102080000F23FB6002233B6100237B614FF4A053CD
:10209000BB614FF48053FB6107F10C030521184627
:1020A00005F028F90346002B01D001F04FFE00BFD8
:1020B0005037BD4680BD00BF003802400070004070
:1020C00080B584B000AF3B4600221A605A609A6027
:1020D000DA60214B214A1A601F4B4FF480325A605C
:1020E0001D4B00229A601C4B00221A611A4B0022E1
:1020F0001A76194B002283F82020174B0022DA624F
:10210000154B174A9A62144B0022DA60124B0122D7
:10211000DA61114B002283F830200F4B01225A6103
:102120000D4802F047FC0346002B01D001F00EFEE3
:1021300007233B6001237B600023BB603B461946BD
:10214000054802F045FF0346002B01D001F0FEFDDB
:1021500000BF1037BD4680BD38060020002001407A
:102160000100000F80B584B000AF3B4600221A602A
:102170005A609A60DA60214B214A1A601F4B4FF473
:1021800080325A601D4B00229A601C4B00221A615B
:102190001A4B00221A76194B002283F82020174B85
:1021A0000022DA62154B174A9A62144B0022DA6059
:1021B000124B0122DA61114B002283F830200F4BC1
:1021C00001225A610D4802F0F5FB0346002B01D0B5
:1021D00001F0BCFD09233B6001237B600023BB6051
:1021E0003B461946054802F0F3FE0346002B01D09A
:1021F00001F0ACFD00BF1037BD4680BD6C0400206F
:10220000002101400100000F80B584B000AF3B46C3
:1022100000221A605A609A60DA60214B214A1A60E3
:102220001F4B4FF480325A601D4B00229A601C4BAA
:1022300000221A611A4B00221A76194B002283F8E9
:102240002020174B0022DA62154B174A9A62144B72
:102250000022DA60124B0122DA61114B002283F86E
:1022600030200F4B01225A610D4802F0A3FB0346B8
:10227000002B01D001F06AFD0E233B6001237B603F
:102280000023BB603B461946054802F0A1FE034609
:10229000002B01D001F05AFD00BF1037BD4680BDB4
:1022A00080060020002201400100000F80B500AF31
:1022B0001B4B1C4A1A601A4B1B4A5A60184B0022CF
:1022C0009A60174B0022DA60154B4FF480421A6176
:1022D000134B00225A61124B00229A61104B0022CC
:1022E000DA610F4B00221A620D4803F007FC034627
:1022F000002B01D001F02AFD0021094804F0EBFC7D
:102300000346002B01D001F021FD0021044804F018
:102310001EFD0346002B01D001F018FD00BF80BD5B
:10232000B404002000540040801A060080B500AFBD
:102330001B4B1C4A1A601A4B1B4A5A60184B00224E
:102340009A60174B0022DA60154B4FF480421A61F5
:10235000134B00225A61124B00229A61104B00224B
:10236000DA610F4B00221A620D4803F0C7FB0346E7
:10237000002B01D001F0EAFC0021094804F0ABFC7D
:102380000346002B01D001F0E1FC0021044804F0D9
:10239000DEFC0346002B01D001F0D8FC00BF80BD5D
:1023A000AC03002000580040801A060080B500AF42
:1023B000174B184A1A60164B4FF482725A60144B2E
:1023C00000229A60124B0022DA60114B00221A613F
:1023D0000F4B00225A610E4B4FF400729A610C4B66
:1023E0003022DA610A4B00221A62094B00225A623B
:1023F000074B00229A62064B0A22DA62044805F073
:1024000075F90346002B01D001F0A0FC00BF80BD90
:10241000EC0700200030014080B500AF174B184A90
:102420001A60164B4FF482725A60144B00229A6065
:10243000124B0022DA60114B00221A610F4B00226E
:102440005A610E4B4FF400729A610C4B1022DA6104
:102450000A4B00221A62094B00225A62074B0022E3
:102460009A62064B0A22DA62044805F03FF90346F5
:10247000002B01D001F06AFC00BF80BD14040020D5
:102480000038004080B586B000AF07F10803002295
:102490001A605A609A60DA603B4600221A605A60FD
:1024A0001D4B4FF080421A601B4B42F2CF025A6024
:1024B000194B00229A60184B0922DA60164B002251
:1024C0001A61154B00229A61134806F019F8034669
:1024D000002B01D001F03AFC4FF48053BB6007F1B0
:1024E000080319460C4806F092FA0346002B01D067
:1024F00001F02CFC00233B6000237B603B46194627
:10250000054806F0ADFC0346002B01D001F01EFC8F
:1025100000BF1837BD4680BD4408002080B586B096
:1025200000AF07F1080300221A605A609A60DA606F
:102530003B4600221A605A601D4B1E4A1A601C4B13
:1025400053225A601A4B00229A60194B4FF6FE72C2
:10255000DA60174B00221A61154B00229A61144869
:1025600005F0CEFF0346002B01D001F0EFFB4FF446
:102570008053BB6007F1080319460D4806F047FA7F
:102580000346002B01D001F0E1FB00233B60002358
:102590007B603B461946064806F062FC0346002B6A
:1025A00001D001F0D3FB00BF1837BD4680BD00BF8E
:1025B000A80500200004004080B582B000AF3B4673
:1025C00000221A605A60154B154A1A60134B5322A9
:1025D0005A60124B00229A60104B4FF6FE72DA607E
:1025E0000E4B00229A610D4805F08AFF0346002B2E
:1025F00001D001F0ABFB00233B6000237B603B4636
:102600001946064806F02CFC0346002B01D001F0C9
:102610009DFB00BF0837BD4680BD00BF44070020BA
:102620000010004080B582B000AF3B4600221A6027
:102630005A60154B154A1A60134B42F2CF025A608A
:10264000114B00229A60104B41F28732DA600E4B38
:1026500000229A610C4805F053FF0346002B01D07D
:1026600001F074FB00233B6000237B603B4619466E
:10267000054806F0F5FB0346002B01D001F066FB90
:1026800000BF0837BD4680BD40090020001400404F
:1026900080B584B000AF3B4600221A605A609A6051
:1026A000DA60164B164A1A60144B44F29F125A60B5
:1026B000124B00229A60114B42F20F72DA600F4BFC
:1026C00000221A610D4B00229A610C4805F018FF98
:1026D0000346002B01D001F039FB4FF480533B60DF
:1026E0003B461946054806F092F90346002B01D0F7
:1026F00001F02CFB00BF1037BD4680BD90070020C5
:102700000040014080B500AF0E4B0F4A1A600D4BE0
:1027100044F29F125A600B4B00229A60094B42F21E
:102720000F72DA60074B00221A61064B80229A6111
:10273000044805F0E5FE0346002B01D001F006FB3E
:1027400000BF80BD0C0500200044014080B500AFF3
:102750000E4B0F4A1A600D4B44F29F125A600B4BFE
:1027600000229A60094B40F2E732DA60074B002200
:102770001A61064B00229A61044805F0C1FE034627
:10278000002B01D001F0E2FA00BF80BDE00600207E
:102790000048014080B500AF0E4B0F4A1A600D4B48
:1027A00042F2CF025A600B4B00229A60094B42F270
:1027B0000F72DA60074B00221A61064B00229A6101
:1027C000044805F09DFE0346002B01D001F0BEFA3F
:1027D00000BF80BDF00800200020004080B500AFA1
:1027E000114B124A1A60104B4FF4E1325A600E4BF3
:1027F00000229A600C4B0022DA600B4B00221A6117
:10280000094B0C225A61084B00229A61064B0022A8
:10281000DA61054806F0B4FB0346002B01D001F055
:1028200095FA00BF80BD00BFF405002000500040B5
:1028300080B588B000AF3B1D00221A605A609A60D4
:10284000DA601A615A619A61284B4FF020421A608F
:10285000264B274A5A60254B00229A60234B0022C0
:10286000DA60224B00221A61204B10225A611F4B62
:1028700000229A611D4B0022DA611C4B00221A6271
:102880001A4B00225A62194B4FF480529A62174B2E
:102890000022DA62154B00221A63144B00225A639D
:1028A000124B00229A63114B0022DA630F4B002275
:1028B0005A640F237B600F23BB60FF23FB600F2351
:1028C0003B6110237B611123BB610023FB613B1D36
:1028D00000221946054805F0CFFD0346002B01D024
:1028E00001F034FA00BF2037BD4680BD58050020F6
:1028F000040100A080B58EB000AF07F124030022D0
:102900001A605A609A60DA601A6100233B62B44B25
:102910001B6BB34A43F010031363B14B1B6B03F003
:1029200010033B623B6A0023FB61AD4B1B6BAC4A5F
:1029300043F004031363AA4B1B6B03F00403FB6116
:10294000FB690023BB61A64B1B6BA54A43F0200328
:102950001363A34B1B6B03F02003BB61BB69002314
:102960007B619F4B1B6B9E4A43F0800313639C4B20
:102970001B6B03F080037B617B6900233B61984BF9
:102980001B6B974A43F001031363954B1B6B03F0DA
:1029900001033B613B690023FB60914B1B6B904A39
:1029A00043F0020313638E4B1B6B03F00203FB60C7
:1029B000FB680023BB608A4B1B6B894A43F04003D2
:1029C0001363874B1B6B03F04003BB60BB680023A2
:1029D0007B60834B1B6B824A43F008031363804B7D
:1029E0001B6B03F008037B607B68002241F201311E
:1029F0007C4803F037F8012206217A4803F032F8C8
:102A0000002248F21001784803F02CF800224CF222
:102A10008901764803F026F800220B21744803F060
:102A200021F800224FF4E861724803F01BF80022FD
:102A30004021714803F016F808237B620023BB6233
:102A40000023FB6207F1240319466C4802F046FE9E
:102A500041F203337B620123BB620023FB62032349
:102A60003B6307F1240319465E4802F037FE042356
:102A70007B620123BB620123FB6203233B6307F1FB
:102A800024031946574802F029FE42F288037B626C
:102A90000023BB620023FB6207F12403194651485F
:102AA00002F01CFE20237B624FF40413BB6201235F
:102AB000FB6207F1240319464A4802F00FFE40F674
:102AC00081037B620023BB620023FB6207F12403C6
:102AD0001946484802F002FE08237B620023BB62CD
:102AE0000023FB6207F1240319463F4802F0F6FD7C
:102AF00048F210037B620123BB620023FB620323C5
:102B00003B6307F124031946374802F0E7FD4CF216
:102B100089037B620123BB620023FB6203233B63C7
:102B200007F124031946314802F0D8FD0B237B62DC
:102B30000123BB620023FB6203233B6307F12403F1
:102B400019462B4802F0CAFD41F210137B620023A4
:102B5000BB620023FB6207F124031946234802F0FD
:102B6000BDFD04237B620023BB620023FB6207F1EF
:102B7000240319461E4802F0B1FD4FF4E8637B625E
:102B80000123BB620023FB6203233B6307F12403A1
:102B90001946184802F0A2FD40237B620123BB6264
:102BA0000023FB6203233B6307F124031946124809
:102BB00002F094FD4FF480437B620023BB6202234A
:102BC000FB6207F124031946094802F087FD01233F
:102BD0007B624FF48813BB620023FB6210E000BFEE
:102BE000003802400014024000000240000402408D
:102BF0000018024000080240000C02400010024091
:102C000007F1240319460B4802F068FD0022002159
:102C1000062002F006FD062002F01FFD0022002122
:102C2000172002F0FEFC172002F017FD00BF383716
:102C3000BD4680BD0010024080B582B000AF0346A3
:102C4000FB80FB88202B08D108F044FD0346002BB5
:102C500003D00749074808F04DFDFB88012B02D13E
:102C6000054B01221A7000BF0837BD4680BD00BF6A
:102C700058020020560200205A02002080B582B07F
:102C800000AF78607B681B68B3F1804F1ED18E4B1C
:102C90001B78002B1AD08D4B1B889BB24FF6FA7213
:102CA00093420BD88A4B1B78012B07D1874B1B888B
:102CB0009BB201339AB2854B1A8007E0834B002206
:102CC0001A8008F029FB824B01221A707B681B686E
:102CD000804A934205D1804B1B780133DAB27E4B98
:102CE0001A707B681B687D4A93422ED17C4B1B78FF
:102CF000012B0AD14FF400717A4802F0CCFE4FF458
:102D00008061784802F0C7FE1FE0774B1B78012BEB
:102D100005D14FF48061734802F0BDFE15E0734B9E
:102D20001B78012B05D14FF400716E4802F0B3FE01
:102D30000BE000224FF480616A4802F093FE00220B
:102D40004FF40071674802F08DFE7B681B68684A8B
:102D5000934205D15D4B1B889BB2184608F0F0FAF0
:102D60007B681B68634A934240F09280624B1B78F9
:102D7000013B042B76D801A252F823F0912D0008D4
:102D8000BB2D0008E52D00080F2E0008392E000885
:102D90005A4B1B78012B08D0594B1B6842F210721A
:102DA000DA62574B42F21072DA600121554802F0A4
:102DB00072FE524B01221A706BE0504B1B78022BB3
:102DC00008D04F4B1B6841F28832DA624C4B41F21B
:102DD0008832DA6001214B4802F05DFE474B022247
:102DE0001A7056E0454B1B78032B08D0444B1B68E8
:102DF00040F6B832DA62424B40F6B832DA6001216E
:102E0000404802F048FE3D4B03221A7041E03B4B24
:102E10001B78042B08D03A4B1B684FF4FA62DA6235
:102E2000374B4FF4FA62DA600121364802F033FE84
:102E3000324B04221A702CE0304B1B78052B08D043
:102E40002F4B1B684FF4FA72DA622D4B4FF4FA7273
:102E5000DA60012201212B4802F004FE274B0522F3
:102E60001A7016E000220121264802F0FBFD234BD8
:102E70001B78082B08D0224B1B6842F21072DA62D2
:102E80001F4B42F21072DA601C4B08221A7000E0ED
:102E900000BF7B681B681C4A934211D11B4B1B88E7
:102EA00001339AB2194B1A80184B1B8840F26222E8
:102EB000934202D1154B01221A80012000F028F81C
:102EC00000BF0837BD4680BD3809002064020020DD
:102ED0000E00002000200040690200200014004085
:102EE00087020020000802408602002085020020A0
:102EF00000400140004401406D0200201B00002002
:102F00000C05002000180240004801401800002075
:102F100080B483B000AF0346FB71FB79012B03D073
:102F2000022B00F08B80EFE13D4B1A883D4BA3FB59
:102F3000021399080B469B000B44D31A9BB2002B3B
:102F400005D1394B5B8901339AB2374B5A81344BE7
:102F50001B8803F007039BB2002B05D1324B5B8823
:102F600001339AB2304B5A802D4B1B8803F0070374
:102F70009BB2002B05D12C4B9B8901339AB22A4B73
:102F80009A81274B1B8803F007039BB2002B05D1C6
:102F9000254B9B8801339AB2234B9A80204B1B8888
:102FA000224AA2FB03121209322101FB02F29B1AF0
:102FB0009BB2002B05D11C4B1B8901339AB21A4BD3
:102FC0001A81174B1A881A4BA3FB021319090B46D7
:102FD0001B015B1A5B00D31A9BB2002B05D1124B6D
:102FE0001B8801339AB2104B1A80124B1B78012BAD
:102FF0000ED10B4B1B8803F001039BB2002B40F05A
:103000008081094BDB8804339AB2074BDA8078E180
:10301000054B0022DA80084B00221A7071E100BFD4
:1030200018000020CDCCCCCC000000201F85EB5137
:1030300089888888870200206D020020904B00223A
:103040001A708F4B1B78002B2CD18E4B1A898D4B0D
:103050009B889A4226D38B4B1A898A4B1B889A42AB
:1030600020D3884B1A89874B5B899A421AD3854BA8
:103070001A89844B9B899A4214D3824B1A89814BBB
:103080005B889A420ED37F4B1A897E4BDB889A422B
:1030900008D37C4B00221A817B4B05221A70784B97
:1030A00001221A70764B1B78002B2CD1754B9A8815
:1030B000744B1B899A4226D3724B9A88714B1B889A
:1030C0009A4220D36F4B9A886E4B5B899A421AD3EF
:1030D0006C4B9A886B4B9B899A4214D3694B9A88A4
:1030E000684B5B889A420ED3664B9A88654BDB88A7
:1030F0009A4208D3634B00229A80634B03221A70D2
:103100005F4B01221A705E4B1B78002B2CD15D4B5C
:103110001A885C4B1B899A4226D35A4B1A88594B02
:103120009B889A4220D3574B1A88564B5B899A4208
:103130001AD3544B1A88534B9B899A4214D3514B40
:103140001A88504B5B889A420ED34E4B1A884D4BCF
:10315000DB889A4208D34B4B00221A804A4B01224B
:103160001A70474B01221A70454B1B78002B2CD14B
:10317000444B5A89434B1B899A4226D3414B5A8967
:10318000404B9B889A4220D33E4B5A893D4B1B882B
:103190009A421AD33B4B5A893A4B9B899A4214D391
:1031A000384B5A89374B5B889A420ED3354B5A8934
:1031B000344BDB889A4208D3324B00225A81324B7F
:1031C00006221A702E4B01221A702D4B1B78002BF1
:1031D0002CD12C4B9A892B4B1B899A4226D3294BF5
:1031E0009A89284B9B889A4220D3264B9A89254B53
:1031F0001B889A421AD3234B9A89224B5B899A42A5
:1032000014D3204B9A891F4B5B889A420ED31D4BD7
:103210009A891C4BDB889A4208D31A4B00229A8168
:10322000194B07221A70164B01221A70144B1B7887
:10323000002B34D1134B5A88124B1B899A422ED340
:10324000104B5A880F4B9B889A4228D30D4B5A88B3
:103250000C4B1B889A4222D30A4B5A88094B5B8934
:103260009A421CD3074B5A88064B9B899A4216D325
:10327000044B5A88034BDB889A4210D306E000BF08
:10328000890200200000002055020020214B00226E
:103290005A80214B02221A70204B01221A701F4BB8
:1032A0001B78002B2FD11B4BDA881A4B1B899A42B3
:1032B00029D3184BDA88174B9B889A4223D3154B96
:1032C000DA88144B1B889A421DD3124BDA88114BB3
:1032D0005B899A4217D30F4BDA880E4B9B899A422F
:1032E00011D30C4BDA880B4B5B889A420BD3094BFA
:1032F0000022DA80084B04221A70084B01221A704F
:1033000001E000BF00E000BF00BF0C37BD465DF824
:10331000047B704700000020550200208902002035
:1033200080B588B000AF684805F0CAF907F1080316
:1033300000221A605A609A60DA601A610123BB6049
:103340000123FB6000237B6107F1080319465F48F6
:1033500002F0C4F9002201215C4802F083FB44F230
:10336000506000F0DBF801220121584802F07AFB9E
:10337000142000F0D3F80023FB6000233B6107F129
:1033800008031946514802F0A9F9282000F0C6F8B0
:1033900001214E4802F04EFB0346002B0CD1502079
:1033A00000F0BCF80121494802F044FB0346002B21
:1033B00002D14FF0FF3382E0002000F08DF8034689
:1033C000002B02D14FF0FF3379E00023FB7758E068
:1033D0000023BB774FE0012000F07EF80346002B6E
:1033E00002D14FF0FF336AE0282000F097F8012166
:1033F000364802F01FFB0346002B19D1FB7F07F173
:103400002002134413F8203C5AB2BB7FC3F10703D8
:10341000012101FA03F35BB2DB435BB213405AB202
:10342000FB7FD2B207F120010B4403F8202C16E0F9
:10343000FB7F07F12002134413F8203C5AB2BB7FF4
:10344000C3F10703012101FA03F35BB213435AB23C
:10345000FB7FD2B207F120010B4403F8202C00209F
:1034600000F03AF80346002B02D14FF0FF3326E07C
:10347000BB7F0133BB77BB7F072BACD9FB7F01330D
:10348000FB77FB7F042BA3D93B791A463B7819467F
:103490007B780B44B9780B44F9780B449A4202D0FC
:1034A0006FF001030BE0BB781A46094B1A603B78BA
:1034B0001A46084B1A60044805F072F901231846B1
:1034C0002037BD4680BD00BF4407002000140240E5
:1034D0005C0200206002002080B582B000AF7860FE
:1034E0000C4B1B6800225A6206E00A4B1B685B6AA1
:1034F000632B01D9002309E00121074802F09AFA61
:1035000003461A467B689342EFD1012318460837D9
:10351000BD4680BD440700200014024080B483B043
:1035200000AF0346FB80094B1B6800225A6200BFB4
:10353000064B1B685A6AFB889A42F9D300BF00BF4A
:103540000C37BD465DF8047B704700BF4407002080
:1035500080B582B002AF574B1B78002B00F0A480DF
:10356000554B01221A7093E0544B00221A7007F059
:10357000E5FC534B1B78002B1DD0514B00221A70D9
:103580004FF6205301930523009364234FF48C726C
:103590005021142006F018FC4A4806F0B1FD4FF601
:1035A0002051002006F0BCFD78214B2006F03CFEA7
:1035B000454806F019FD414B1B78DBB2002B56D075
:1035C000424B1B780133DAB2404B1A7000F08AF993
:1035D0003B4B01221A70384B1B78002B22D14FF441
:1035E000FC6301930523009364234FF48C725021F4
:1035F000142006F0E9FB334806F082FD4FF4FC612D
:10360000002006F08DFD7821612006F00DFE304887
:1036100006F0EAFC0721012000F052FA2D4B0022AF
:103620001A7024E04FF47843019305230093642338
:103630004FF48C725021142006F0C6FB214806F08E
:103640005FFD4FF47841002006F06AFD78214B20A1
:1036500006F0EAFD204806F0C7FC0721022000F032
:103660002FFA04E0012240211C4802F0FBF9174B1D
:103670001B78042B05D91A4B1A781A4B1B789A42DF
:10368000F0D3124B1B78042B02D9104B00221A7076
:10369000094B1B78012B0AD1114B1A78114B1B785F
:1036A0009A42FFF461AF02E00A4B00221A7000BF99
:1036B000BD4680BD0F000020C10A0020F80900208F
:1036C0001C0000203C000020800701086C02002044
:1036D0001C0801081000002028080108000802400A
:1036E000690200201100002080B582B002AF734B48
:1036F0001B78002B00F08980714B00221A7007F0B4
:103700001DFC6F4B1B78DBB2002B00F0CF8000F06C
:10371000E9F86C4B1B78012B40F0C8806A4B1B7892
:10372000012B02D0022B38D0C5E0FDF76FFC034619
:10373000002B00F0BD806423012264493120FDF795
:103740007FFC624B1B781A46642361493220FDF7E7
:1037500077FC4FF6E07301930523009364234FF445
:103760008C725021142006F02FFB5A4806F0C8FC3A
:103770004FF6E071002006F0D3FC7821312006F0EE
:1037800053FD554806F030FC0721032000F098F95E
:1037900040F6B83001F0CAF88AE0FDF737FC03467E
:1037A000002B00F087806423012248490120FDF7A7
:1037B00047FC464B1B781A46642345490220FDF717
:1037C0003FFC4FF6E07301930523009364234FF40D
:1037D0008C725021142006F0F7FA3E4806F090FC57
:1037E0004FF6E071002006F09BFC7821312006F0B6
:1037F0001BFD3A4806F0F8FB0721032000F060F9B2
:1038000040F6B83001F092F854E02D4B00221A70C7
:1038100046E02B4B00221A7007F090FB284B1B78D8
:10382000DBB2002B01D000F05DF8254B1B78DBB23A
:10383000012B35D1FDF7EAFB0346002B30D0642382
:10384000012222490120FDF7FBFB204B1B781A4681
:1038500064231F490220FDF7F3FB4FF6E073019349
:103860000523009364234FF48C725021142006F03A
:10387000ABFA184806F044FC4FF6E071002006F061
:103880004FFC78214B2006F0CFFC154806F0ACFB2E
:1038900040F6B83001F04AF80721032000F010F993
:1038A000074B1B78DBB2002BB3D004E000BF02E073
:1038B00000BF00E000BF00BFBD4680BD0F0000207C
:1038C000F8090020BC0A0020C80A00206602002077
:1038D000900900203C000020340801084408010839
:1038E0005408010880B586B002AF0023FB730023A3
:1038F000BB73684B00221A70FDF788FB0346002B50
:103900002FD0C823012264490120FDF70BFC0A20B7
:1039100001F00CF8C823012260493120FDF702FCB8
:103920000A2001F003F85C4B1B78142B0AD85A4B81
:103930001B781A46C8235A490220FDF7F3FB0A20D8
:1039400000F0F4FF554B1B78142B0AD8534B1B780F
:103950001A46C82353493220FDF7E4FB0A2000F041
:10396000E5FF514B1B7819464F4B5B7818464E4B81
:103970009B781A464C4BDB780193009203460A462B
:103980004A494B4808F0AAFE4948FCF731FC034677
:10399000DAB2484B1A70404B1B780133FB73454B2E
:1039A0001A783D4B1B789A4225D13B4B1B78002B54
:1039B00021D0394B1B78142B1DD80023BB600FE09E
:1039C000374ABB6813441A783949BB680B441B78E3
:1039D0009A4202D1FB7B013BFB73BB680133BB60A6
:1039E000344B1B781A46BB689342E9DBFB7B012B07
:1039F00001D10123BB73294B1B780133FB732D4B82
:103A00001A78264B1B789A4225D1244B1B78002B21
:103A100021D0224B1B78142B1DD800237B600FE094
:103A2000204A7B6813441A7821497B680B441B7831
:103A30009A4202D1FB7B013BFB737B6801337B60C5
:103A40001C4B1B781A467B689342E9DBFB7B012BFE
:103A500001D10223BB73BB7B012B06D1164B012284
:103A60001A70164B00221A700FE0BB7B022B06D196
:103A7000114B02221A70114B00221A7005E0054BFF
:103A800001221A700D4B01221A7000BF1037BD467B
:103A900080BD00BFBC0A0020670200206802002031
:103AA00000040020D8070020C40A00206008010894
:103AB0009009002066020020C80A0020C10A0020E8
:103AC00080B584B000AF03460A46FB711346BB7154
:103AD0000023FB6016E0012201210F4801F0C2FF24
:103AE000BB79184600F022FF002201210A4801F0AC
:103AF000B9FFFB79012B02D0962000F017FFFB687D
:103B00000133FB60FB79FA689A42E4DB00BF00BF37
:103B10001037BD4680BD00BF001802400000000005
:103B200098B500AF804804F03BFD01224FF40041FE
:103B30007E4801F097FF7C4B1B6800225A6200BF51
:103B4000794B1B685B6A092BFAD900224FF40041BC
:103B5000764801F087FF00F0DDFE0346744A1360EB
:103B600000BF4FF48051714801F064FF0346002B01
:103B700008D16F4B1B6803F10A0400F0CBFE03462B
:103B80009C42EED8684B1B685B6A07EE903AF8EEF1
:103B9000677A684BC3ED007A00F0BCFE0346644AC6
:103BA000136000BF4FF48051604801F043FF0346AB
:103BB000002B08D05E4B1B6803F1320400F0AAFE14
:103BC00003469C42EED8584B1B685B6A07EE903A5E
:103BD000F8EE677A584BC3ED007A574B93ED007AB5
:103BE000544BD3ED007A77EE677A17EE900AFCF724
:103BF000BBFC4BA3D3E90023FCF70EFD02460B46AA
:103C0000104619464FF000024FF08043FCF72EFE9D
:103C100002460B4610461946FCF7F6FF0346474A94
:103C2000136001224FF40041454801F01BFF3E4B59
:103C30001B6800225A6200BF3B4B1B685B6A092B62
:103C4000FAD900224FF400413D4801F00BFF00F08B
:103C500061FE0346364A136000BF8021394801F0F7
:103C6000E9FE0346002B08D1314B1B6803F10A041F
:103C700000F050FE03469C42EFD82B4B1B685B6A5A
:103C800007EE903AF8EE677A2A4BC3ED007A00F01F
:103C900041FE0346264A136000BF8021294801F0F7
:103CA000C9FE0346002B08D0214B1B6803F13204E8
:103CB00000F030FE03469C42EFD81B4B1B685B6A4A
:103CC00007EE903AF8EE677A1B4BC3ED007A1A4B79
:103CD00093ED007A174BD3ED007A77EE677A17EE03
:103CE000900AFCF741FC0EA3D3E90023FCF794FCF7
:103CF00002460B46104619464FF000024FF0804333
:103D0000FCF7B4FD02460B4610461946FCF77CFF53
:103D100003460D4A1360044804F0AAFC00BF98BD96
:103D20009CC420B07268A13FA80500200004024096
:103D3000540500208C02002090020020F005002095
:103D400000000240000802408C07002080B400AF51
:103D500072B600BFFEE7000080B483B000AF00235E
:103D60007B60104B5B6C0F4A43F4804353640D4BF4
:103D70005B6C03F480437B607B6800233B60094BF2
:103D80001B6C084A43F080531364064B1B6C03F012
:103D900080533B603B6800BF0C37BD465DF8047B39
:103DA000704700BF0038024080B58EB000AF786029
:103DB00007F1240300221A605A609A60DA601A61DF
:103DC0007B681B68514A934230D100233B62504BC1
:103DD0005B6C4F4A43F4807353644D4B5B6C03F44C
:103DE00080733B623B6A0023FB61494B1B6B484A73
:103DF00043F001031363464B1B6B03F00103FB61AC
:103E0000FB6980237B620323BB620023FB6207F113
:103E1000240319463F4801F061FC002200211220D2
:103E200001F0FFFB122001F018FC6AE07B681B68C0
:103E3000394A934230D10023BB61354B5B6C344A25
:103E400043F400735364324B5B6C03F40073BB6147
:103E5000BB6900237B612E4B1B6B2D4A43F0020391
:103E600013632B4B1B6B03F002037B617B69022303
:103E70007B620323BB620023FB6207F12403194624
:103E8000264801F02BFC00220021122001F0C9FB82
:103E9000122001F0E2FB34E07B681B68204A934269
:103EA0002FD100233B611A4B5B6C194A43F48063AA
:103EB0005364174B5B6C03F480633B613B690023E5
:103EC000FB60134B1B6B124A43F020031363104B30
:103ED0001B6B03F02003FB60FB6810237B62032352
:103EE000BB620023FB6207F1240319460D4801F071
:103EF000F5FB00220021122001F093FB122001F0BB
:103F0000ACFB00BF3837BD4680BD00BF002001407C
:103F1000003802400000024000210140000402403D
:103F2000002201400014024080B58CB000AF7860E0
:103F300007F11C0300221A605A609A60DA601A6165
:103F40007B681B68334A93422DD10023BB61324BFF
:103F50001B6B314A43F0020313632F4B1B6B03F0BF
:103F60000203BB61BB694FF41073FB6112233B6218
:103F700000237B620323BB620423FB6207F11C0363
:103F80001946264801F0AAFB00237B61224B1B6CDB
:103F9000214A43F4001313641F4B1B6C03F40013FA
:103FA0007B617B6931E07B681B681D4A93422CD1A1
:103FB00000233B61184B1B6B174A43F0020313634A
:103FC000154B1B6B03F002033B613B694FF44063ED
:103FD000FB6112233B6200237B620323BB62042349
:103FE000FB6207F11C0319460C4801F077FB002324
:103FF000FB60094B1B6C084A43F480031364064BB7
:104000001B6C03F48003FB60FB6800BF3037BD46C8
:1040100080BD00BF00540040003802400004024050
:104020000058004080B58EB000AF786007F12403DF
:1040300000221A605A609A60DA601A617B681B6815
:10404000544A934252D100233B62534B5B6C524A19
:1040500043F480535364504B5B6C03F480533B62D6
:104060003B6A0023FB614C4B1B6B4B4A43F0010343
:104070001363494B1B6B03F00103FB61FB690023D6
:10408000BB61454B1B6B444A43F002031363424B35
:104090001B6B03F00203BB61BB6960237B620223DD
:1040A000BB620023FB6203233B6305237B6307F1B1
:1040B00024031946394801F011FB20237B620223B7
:1040C000BB620023FB6203233B6305237B6307F191
:1040D00024031946324801F001FB0022002123206D
:1040E00001F09FFA232001F0B8FA4FE07B681B68CB
:1040F0002C4A93424AD100237B61274B1B6C264AF2
:1041000043F480431364244B1B6C03F480437B61B2
:104110007B6900233B61204B1B6B1F4A43F0040368
:1041200013631D4B1B6B03F004033B613B690023CE
:10413000FB60194B1B6B184A43F002031363164BC9
:104140001B6B03F00203FB60FB680C237B62022302
:10415000BB620023FB6203233B6305237B6307F100
:1041600024031946104801F0B9FA4FF400537B625A
:104170000223BB620023FB6203233B6305237B63B3
:1041800007F124031946064801F0A8FA00BF3837A2
:10419000BD4680BD003001400038024000000240B2
:1041A00000040240003800400008024080B58AB098
:1041B00000AF78607B681B68B3F1804F16D1002395
:1041C0007B626A4B1B6C694A43F001031364674BC3
:1041D0001B6C03F001037B627B6A002200211C2020
:1041E00001F01FFA1C2001F038FABAE07B681B6866
:1041F0005F4A93420ED100233B625C4B1B6C5B4ACF
:1042000043F002031364594B1B6C03F002033B623F
:104210003B6AA6E07B681B68564A934216D100238E
:10422000FB61524B1B6C514A43F0100313644F4B1C
:104230001B6C03F01003FB61FB6900220021362098
:1042400001F0EFF9362001F008FA8AE07B681B687C
:10425000494A934216D10023BB61444B1B6C434A2D
:1042600043F020031364414B1B6C03F02003BB613C
:10427000BB6900220021372001F0D3F9372001F07B
:10428000ECF96EE07B681B683C4A934216D1002330
:104290007B61364B5B6C354A43F480335364334B5C
:1042A0005B6C03F480337B617B6900220021182062
:1042B00001F0B7F9182001F0D0F952E07B681B68D3
:1042C0002F4A934216D100233B61284B5B6C274A4F
:1042D00043F400335364254B5B6C03F400333B61C0
:1042E0003B6900220021192001F09BF9192001F0FF
:1042F000B4F936E07B681B68224A934216D100234A
:10430000FB601A4B5B6C194A43F480235364174BD0
:104310005B6C03F48023FB60FB68002200211A2001
:1043200001F07FF91A2001F098F91AE07B681B6808
:10433000154A934215D10023BB600C4B1B6C0B4AF2
:1043400043F480731364094B1B6C03F48073BB60EC
:10435000BB68002200212D2001F063F92D2001F01F
:104360007CF900BF2837BD4680BD00BF0038024041
:1043700000040040001000400014004000400140D4
:1043800000440140004801400020004080B58AB050
:1043900000AF786007F1140300221A605A609A6037
:1043A000DA601A617B681B68284A93424AD100236D
:1043B0003B61274B1B6C264A43F480131364244B48
:1043C0001B6C03F480133B613B690023FB60204BB3
:1043D0001B6B1F4A43F0040313631D4B1B6B03F05D
:1043E0000403FB60FB680023BB60194B1B6B184A7E
:1043F00043F008031363164B1B6B03F00803BB6009
:10440000BB684FF480537B610223BB610023FB61D7
:1044100003233B6208237B6207F1140319460D480E
:1044200001F05CF904237B610223BB610023FB6183
:1044300003233B6208237B6207F1140319460648F5
:1044400001F04CF900BF2837BD4680BD0050004048
:104450000038024000080240000C024080B586B0DF
:1044600000AF3B1D00221A605A609A60DA601A6140
:104470001C4B1B68002B31D11A4B01221A60002300
:104480003B60194B9B6B184A43F001039363164B37
:104490009B6B03F001033B603B684FF680737B60CE
:1044A0000223BB600023FB6003233B610C237B6181
:1044B0003B1D19460D4801F011F94EF2B3737B60B4
:1044C0000223BB600023FB6003233B610C237B6161
:1044D0003B1D1946064801F001F900E000BF1837FE
:1044E000BD4680BD9402002000380240001002400A
:1044F000000C024080B582B000AF7860FFF7AEFFDD
:1045000000BF0837BD4680BD80B400AFFEE780B471
:1045100000AFFEE780B400AFFEE780B400AFFEE777
:1045200080B400AFFEE780B400AF00BFBD465DF8C9
:10453000047B704780B400AF00BFBD465DF8047BCC
:10454000704780B400AF00BFBD465DF8047B704784
:1045500080B500AF00F0CAF900BF80BD80B500AFE4
:10456000012001F0B3FA00BF80BD000080B500AFAC
:10457000054800F0C0FB054800F0BDFB044800F012
:10458000BAFB00BF80BD00BF380600206C040020CD
:104590008006002080B500AF202001F097FA00BF10
:1045A00080BD000080B500AF024804F028F900BFCC
:1045B00080BD00BF9007002080B500AF024804F026
:1045C0001EF900BF80BD00BF0C05002080B500AF04
:1045D000024804F014F900BF80BD00BFE0060020CF
:1045E00080B500AF024804F00AF900BF80BD00BFEB
:1045F0004408002080B500AF024803F0EFFC00BF84
:1046000080BD00BFEC07002080B500AF024804F079
:10461000F6F800BF80BD00BFF008002080B500AFF5
:10462000024804F0ECF800BF80BD00BF4407002042
:1046300080B500AF024804F0E2F800BF80BD00BFC3
:104640004009002080B400AF01231846BD465DF844
:10465000047B704780B582B000AF7860396007F0A6
:10466000FDF8034616221A604FF0FF33184608374C
:10467000BD4680BD80B582B000AF78604FF0FF319D
:104680007868FFF7E7FFFEE780B586B000AFF86017
:10469000B9607A6000237B610AE0AFF300800146D5
:1046A000BB685A1CBA60CAB21A707B6901337B615D
:1046B0007A697B689A42F0DB7B6818461837BD46FA
:1046C00080BD80B586B000AFF860B9607A60002325
:1046D0007B6109E0BB685A1CBA601B781846FCF77E
:1046E0005BFD7B6901337B617A697B689A42F1DB10
:1046F0007B6818461837BD4680BD80B483B000AFD4
:1047000078604FF0FF3318460C37BD465DF8047BE8
:10471000704780B483B000AF786039603B684FF475
:1047200000525A60002318460C37BD465DF8047BE2
:10473000704780B483B000AF7860012318460C370F
:10474000BD465DF8047B704780B485B000AFF8606B
:10475000B9607A60002318461437BD465DF8047BC3
:104760007047000080B586B000AF7860144A154BE2
:10477000D31A7B617B693B61134B1B68002B02D111
:10478000114B124A1A60104B1A687B6813443A693D
:104790009A4207D207F062F803460C221A604FF0E3
:1047A000FF3309E0084B1B68FB60074B1A687B6806
:1047B0001344054A1360FB6818461837BD4680BD90
:1047C000000003200004000098020020680B002075
:1047D00080B400AF064BD3F88830054A43F4700329
:1047E000C2F8883000BFBD465DF8047B704700BF4B
:1047F00000ED00E0DFF834D00D480E490E4A0023EA
:1048000002E0D458C4500433C4188C42F9D30B4A84
:104810000B4C002301E013600432A242FBD3FFF7EC
:10482000D7FF07F021F8FCF7CBFC7047000003200E
:104830000000002038020020804C010838020020CF
:10484000680B0020FEE7000080B500AF0E4B1B6830
:104850000D4A43F4007313600B4B1B680A4A43F480
:1048600080631360084B1B68074A43F4807313602E
:10487000032000F0CBFE0F2000F008F8FFF76CFAE1
:104880000023184680BD00BF003C024080B582B0C6
:1048900000AF7860124B1A68124B1B7819464FF420
:1048A0007A73B3FBF1F3B2FBF3F3184600F0E7FEC3
:1048B0000346002B01D001230EE07B680F2B0AD8A2
:1048C000002279684FF0FF3000F0ABFE064A7B68AB
:1048D0001360002300E0012318460837BD4680BD61
:1048E00020000020280000202400002080B400AF19
:1048F000064B1B781A46064B1B681344044A136088
:1049000000BFBD465DF8047B704700BF2800002053
:10491000B809002080B400AF034B1B681846BD46A1
:104920005DF8047B704700BFB809002080B584B0F3
:1049300000AF7860FFF7EEFFB8607B68FB60FB6854
:10494000B3F1FF3F05D00A4B1B781A46FB681344AE
:10495000FB6000BFFFF7DEFF0246BB68D31AFA68B0
:104960009A42F7D800BF00BF1037BD4680BD00BFD8
:104970002800002080B400AF054B1B68044A23F0D8
:104980000203136000BFBD465DF8047B704700BFA3
:1049900010E000E080B400AF054B1B68044A43F010
:1049A0000203136000BFBD465DF8047B704700BF83
:1049B00010E000E080B584B000AF78600023FB73A6
:1049C0007B68002B01D1012333E07B681B6C002B3B
:1049D00009D17868FFF7E8F97B6800225A647B68A0
:1049E000002283F83C207B681B6C03F01003002B33
:1049F00018D17B681B6C23F4885323F0020343F027
:104A000002027B681A64786800F014FC7B6800225C
:104A10005A647B681B6C23F0030343F001027B683C
:104A20001A6401E00123FB737B68002283F83C20B9
:104A3000FB7B18461037BD4680BD000080B485B0B2
:104A400000AF78600023BB607B6893F83C30012B9B
:104A500001D10223B2E07B68012283F83C207B680D
:104A60001B689B6803F00103012B18D07B681B684F
:104A70009A687B681B6842F001029A60524B1B687F
:104A8000524AA2FB03239A0C13465B001344BB60FB
:104A900002E0BB68013BBB60BB68002BF9D17B68BF
:104AA0001B689B6803F00103012B7AD17B681B6CA8
:104AB00023F4E06323F0010343F480727B681A64FB
:104AC0007B681B685B6803F48063002B07D07B68FE
:104AD0001B6C23F4405343F480527B681A647B6858
:104AE0001B6C03F48053B3F5805F06D17B685B6C6D
:104AF00023F006027B685A6402E07B6800225A6455
:104B00007B68002283F83C20314BFB607B681B688C
:104B10006FF022021A60FB685B6803F01F03002B32
:104B20002AD17B681B682B4A934215D07B681B688F
:104B3000294A934205D1264B5B6803F01F03002BE3
:104B40000AD07B681B68254A934236D1204B5B68AC
:104B500003F01003002B30D17B681B689B6803F0C7
:104B60004053002B29D17B681B689A687B681B68BF
:104B700042F080429A6020E07B681B68154A9342AD
:104B80001BD17B681B689B6803F04053002B14D13A
:104B90007B681B689A687B681B6842F080429A6059
:104BA0000BE07B681B6C43F010027B681A647B6827
:104BB0005B6C43F001027B685A640023184614378B
:104BC000BD465DF8047B70472000002083DE1B4358
:104BD000002301400020014000210140002201404B
:104BE00080B584B000AF786039600023FB607B68DB
:104BF0001B689B6803F48063B3F5806F13D17B68F7
:104C00001B689B6803F48073B3F5807F0BD17B68CE
:104C10001B6C43F020027B681A647B68002283F8D7
:104C20003C20012363E0FFF775FEF86021E03B685C
:104C3000B3F1FF3F1DD03B68002B07D0FFF76AFEA2
:104C40000246FB68D31A3A689A4212D27B681B6804
:104C50001B6803F00203022B0BD07B681B6C43F034
:104C600004027B681A647B68002283F83C200323DB
:104C70003DE07B681B681B6803F00203022BD6D162
:104C80007B681B686FF012021A607B681B6C43F430
:104C900000727B681A647B681B689B6803F0405352
:104CA000002B23D17B681B7E002B1FD17B681B68E8
:104CB000DB6A03F47003002B06D07B681B689B68DB
:104CC00003F48063002B11D17B681B6C23F480728A
:104CD0007B681A647B681B6C03F48053002B05D13E
:104CE0007B681B6C43F001027B681A640023184642
:104CF0001037BD4680BD80B584B000AF786000231A
:104D0000FB600023BB607B681B681B6803F0020329
:104D1000022B0CBF01230023DBB2FB607B681B6806
:104D20005B6803F02003202B0CBF01230023DBB2C0
:104D3000BB60FB68002B49D0BB68002B46D07B686A
:104D40001B6C03F01003002B05D17B681B6C43F434
:104D500000727B681A647B681B689B6803F0405391
:104D6000002B2BD17B681B7E002B27D17B681B6817
:104D7000DB6A03F47003002B06D07B681B689B681A
:104D800003F48063002B19D17B681B685A687B6829
:104D90001B6822F020025A607B681B6C23F480722F
:104DA0007B681A647B681B6C03F48053002B05D16D
:104DB0007B681B6C43F001027B681A64786800F022
:104DC000E8F87B681B686FF012021A607B681B684A
:104DD0001B6803F00403042B0CBF01230023DBB288
:104DE000FB607B681B685B6803F08003802B0CBF53
:104DF00001230023DBB2BB60FB68002B57D0BB68EC
:104E0000002B54D07B681B6C03F01003002B05D1E2
:104E10007B681B6C43F400527B681A647B681B68D8
:104E20009B6803F44013002B39D17B681B689B6B94
:104E300003F44013002B06D07B681B689B6803F4C7
:104E40008063002B2BD17B681B685B6803F4806355
:104E5000002B24D17B681B689B6803F04053002B18
:104E60001DD17B681B7E002B19D17B681B685A689B
:104E70007B681B6822F080025A607B681B6C23F4FD
:104E800080527B681A647B681B6C03F48073002B70
:104E900005D17B681B6C43F001027B681A6478685B
:104EA00000F0C4FA7B681B686FF00C021A607B6824
:104EB0001B681B6803F00103012B0CBF01230023B7
:104EC000DBB2FB607B681B685B6803F04003402B30
:104ED0000CBF01230023DBB2BB60FB68002B17D0A3
:104EE000BB68002B14D07B681B681B6803F00103B0
:104EF000012B0DD17B681B6C43F480327B681A64F4
:104F0000786800F050F87B681B686FF001021A6047
:104F10007B681B681B6803F02003202B0CBF012358
:104F20000023DBB2FB607B681B685B6803F0806377
:104F3000B3F1806F0CBF01230023DBB2BB60FB68C1
:104F4000002B15D0BB68002B12D07B685B6C43F044
:104F500002027B685A647B681B686FF020021A604B
:104F6000786800F02AF87B681B686FF020021A60EE
:104F700000BF1037BD4680BD80B483B000AF7860FD
:104F80007B681B68DB6C18460C37BD465DF8047BFC
:104F9000704780B483B000AF786000BF0C37BD4667
:104FA0005DF8047B704780B483B000AF786000BFC9
:104FB0000C37BD465DF8047B704780B483B000AF0A
:104FC000786000BF0C37BD465DF8047B7047000079
:104FD00080B485B000AF786039600023BB607B6827
:104FE00093F83C30012B01D1022313E17B680122AD
:104FF00083F83C203B681B68092B25D97B681B681C
:10500000D9683B681B689BB21A4613465B00134481
:105010001E3B072202FA03F3DA437B681B680A404F
:10502000DA607B681B68D9683B689A683B681B68D4
:105030009BB2184603465B0003441E3B9A407B68C4
:105040001B680A43DA6022E07B681B6819693B68C9
:105050001B689BB21A4613465B001344072202FAF0
:1050600003F3DA437B681B680A401A617B681B689C
:1050700019693B689A683B681B689BB218460346EF
:105080005B0003449A407B681B680A431A613B68D3
:105090005B68062B24D87B681B68596B3B685A6891
:1050A00013469B001344053B1F2202FA03F3DA4325
:1050B0007B681B680A405A637B681B68596B3B68B6
:1050C0001B689BB218463B685A6813469B00134402
:1050D000053B00FA03F27B681B680A435A634CE005
:1050E0003B685B680C2B24D87B681B68196B3B689A
:1050F0005A6813469B001344233B1F2202FA03F312
:10510000DA437B681B680A401A637B681B68196B6B
:105110003B681B689BB218463B685A6813469B0065
:105120001344233B00FA03F27B681B680A431A63AB
:1051300023E07B681B68D96A3B685A6813469B006A
:105140001344413B1F2202FA03F3DA437B681B68D6
:105150000A40DA627B681B68D96A3B681B689BB2AD
:1051600018463B685A6813469B001344413B00FABB
:1051700003F27B681B680A43DA62294BFB607B6899
:105180001B68284A93420FD13B681B68122B0BD136
:10519000FB685B6823F40002FB685A60FB685B688D
:1051A00043F48002FB685A607B681B681D4A934287
:1051B0002BD13B681B681C4A934203D03B681B6899
:1051C000112B22D1FB685B6823F48002FB685A60D4
:1051D000FB685B6843F40002FB685A603B681B682D
:1051E000114A934211D1114B1B68114AA2FB0323B0
:1051F0009A0C13469B0013445B00BB6002E0BB6843
:10520000013BBB60BB68002BF9D17B68002283F8AF
:105210003C20002318461437BD465DF8047B7047D8
:105220000023014000200140120000102000002057
:1052300083DE1B4380B485B000AF7860794BFB60A0
:10524000FB685B6823F44032FB685A60FB685A686D
:105250007B685B681A43FB685A607B681B685A6806
:105260007B681B6822F480725A607B681B685968EF
:105270007B681B691A027B681B680A435A607B685B
:105280001B685A687B681B6822F040725A607B6812
:105290001B6859687B689A687B681B680A435A6078
:1052A0007B681B689A687B681B6822F400629A60BE
:1052B0007B681B6899687B68DA687B681B680A43AF
:1052C0009A607B689B6A584A934222D07B681B682D
:1052D0009A687B681B6822F070629A607B681B6822
:1052E00099687B689A6A7B681B680A439A607B6846
:1052F0001B689A687B681B6822F040529A607B6842
:105300001B6899687B68DA6A7B681B680A439A6045
:105310000FE07B681B689A687B681B6822F07062EC
:105320009A607B681B689A687B681B6822F0405211
:105330009A607B681B689A687B681B6822F002028F
:105340009A607B681B6899687B681B7E5A007B6843
:105350001B680A439A607B6893F82030002B1BD0AF
:105360007B681B685A687B681B6842F400625A605D
:105370007B681B685A687B681B6822F460425A602D
:105380007B681B6859687B685B6A013B5A037B68D2
:105390001B680A435A6007E07B681B685A687B6891
:1053A0001B6822F400625A607B681B68DA6A7B68BB
:1053B0001B6822F47002DA627B681B68D96A7B681A
:1053C000DB69013B1A057B681B680A43DA627B686C
:1053D0001B689A687B681B6822F400729A607B687D
:1053E0001B6899687B6893F830305A027B681B68A9
:1053F0000A439A607B681B689A687B681B6822F482
:1054000080629A607B681B6899687B685B699A0216
:105410007B681B680A439A6000BF1437BD465DF87D
:10542000047B7047002301400100000F80B483B06B
:1054300000AF786000BF0C37BD465DF8047B704755
:1054400080B485B000AF78607B6803F00703FB6031
:105450000C4BDB68BB60BA684FF6FF031340BB60C0
:10546000FB681A02BB68134343F0BF6343F4003385
:10547000BB60044ABB68D36000BF1437BD465DF80B
:10548000047B704700ED00E080B400AF044BDB68A4
:105490001B0A03F007031846BD465DF8047B7047FE
:1054A00000ED00E080B483B000AF0346FB7197F9D4
:1054B0000730002B0BDBFB7903F01F02074997F93C
:1054C00007305B09012000FA02F241F8232000BFF7
:1054D0000C37BD465DF8047B704700BF00E100E07B
:1054E00080B483B000AF03463960FB7197F9073091
:1054F000002B0ADB3B68DAB20C4997F9073012013E
:10550000D2B20B4483F800230AE03B68DAB20849C0
:10551000FB7903F00F03043B1201D2B20B441A765D
:1055200000BF0C37BD465DF8047B704700E100E02A
:1055300000ED00E080B489B000AFF860B9607A6037
:10554000FB6803F00703FB61FB69C3F10703042B4E
:1055500028BF0423BB61FB690433062B02D9FB6916
:10556000033B00E000237B614FF0FF32BB6902FA8E
:1055700003F3DA43BB681A407B699A404FF0FF316E
:105580007B6901FA03F3D9437B680B401343184648
:105590002437BD465DF8047B7047000080B400AF3F
:1055A000BFF34F8F00BF064BDB6803F4E062044992
:1055B000044B1343CB60BFF34F8F00BF00BFFDE729
:1055C00000ED00E00400FA0580B582B000AF78601D
:1055D0007B68013BB3F1807F01D301230FE00A4ACE
:1055E0007B68013B53600F214FF0FF30FFF778FFDE
:1055F000054B00229A60044B07221A6000231846CC
:105600000837BD4680BD00BF10E000E080B582B025
:1056100000AF78607868FFF713FF00BF0837BD461A
:1056200080BD80B586B000AF0346B9607A60FB7379
:1056300000237B61FFF728FF78617A68B968786991
:10564000FFF778FF024697F90F3011461846FFF72B
:1056500047FF00BF1837BD4680BD80B582B000AFA0
:105660000346FB7197F907301846FFF71BFF00BF91
:105670000837BD4680BD80B500AFFFF78FFF80B50E
:1056800082B000AF78607868FFF79EFF0346184647
:105690000837BD4680BD80B483B000AF78607B68BA
:1056A00093F83530DBB2022B04D07B6880225A6538
:1056B00001230CE07B68052283F835207B681B689A
:1056C0001A687B681B6822F001021A6000231846E2
:1056D0000C37BD465DF8047B7047000080B489B08C
:1056E00000AF7860396000237B6100233B610023B9
:1056F000BB610023FB6177E10122FB6902FA03F33E
:105700007B613B681B687A6913403B613A697B693E
:105710009A4240F066813B685B6803F00303012B0B
:1057200005D03B685B6803F00303022B30D17B6834
:105730009B68BB61FB695B00032202FA03F3DB4356
:10574000BA691340BB613B68DA68FB695B0002FA27
:1057500003F3BA691343BB617B68BA699A607B68DB
:105760005B68BB610122FB6902FA03F3DB43BA69A0
:105770001340BB613B685B681B0903F00102FB69D6
:1057800002FA03F3BA691343BB617B68BA695A60D2
:105790003B685B6803F00303032B17D07B68DB686F
:1057A000BB61FB695B00032202FA03F3DB43BA69C6
:1057B0001340BB613B689A68FB695B0002FA03F324
:1057C000BA691343BB617B68BA69DA603B685B689E
:1057D00003F00303022B23D1FB69DA087B6808324C
:1057E00053F82230BB61FB6903F007039B000F22D3
:1057F00002FA03F3DB43BA691340BB613B681A69E1
:10580000FB6903F007039B0002FA03F3BA69134331
:10581000BB61FB69DA087B680832B96943F822107A
:105820007B681B68BB61FB695B00032202FA03F320
:10583000DB43BA691340BB613B685B6803F003025A
:10584000FB695B0002FA03F3BA691343BB617B682F
:10585000BA691A603B685B6803F44033002B00F0C0
:10586000C0800023FB60664B5B6C654A43F4804359
:105870005364634B5B6C03F48043FB60FB68614AD9
:10588000FB699B08023352F82330BB61FB6903F0CC
:1058900003039B000F2202FA03F3DB43BA691340B0
:1058A000BB617B68584A934237D07B68574A934222
:1058B00031D07B68564A93422BD07B68554A93423D
:1058C00025D07B68544A93421FD07B68534A934249
:1058D00019D07B68524A934213D07B68514A934255
:1058E0000DD07B68504A934207D07B684F4A934261
:1058F00001D1092312E00A2310E008230EE0072358
:105900000CE006230AE0052308E0042306E0032355
:1059100004E0022302E0012300E00023FA6902F020
:10592000030292009340BA691343BB613549FB6996
:105930009B080233BA6941F823203D4B1B68BB61C9
:105940003B69DB43BA691340BB613B685B6803F4A6
:105950008033002B03D0BA693B691343BB61344ADF
:10596000BB691360324B5B68BB613B69DB43BA695F
:105970001340BB613B685B6803F40033002B03D02A
:10598000BA693B691343BB61294ABB695360284B21
:105990009B68BB613B69DB43BA691340BB613B68F1
:1059A0005B6803F48013002B03D0BA693B6913438F
:1059B000BB611F4ABB6993601D4BDB68BB613B69E0
:1059C000DB43BA691340BB613B685B6803F40013B7
:1059D000002B03D0BA693B691343BB61144ABB690E
:1059E000D360FB690133FB61FB690F2B7FF684AE4B
:1059F00000BF00BF2437BD465DF8047B704700BF81
:105A0000003802400038014000000240000402401B
:105A100000080240000C0240001002400014024046
:105A200000180240001C02400020024000240240F6
:105A3000003C014080B485B000AF78600B467B80AD
:105A40007B681A697B881340002B02D00123FB730B
:105A500001E00023FB73FB7B18461437BD465DF85D
:105A6000047B704780B483B000AF78600B467B80C6
:105A700013467B707B78002B03D07A887B689A6111
:105A800003E07B881A047B689A6100BF0C37BD462F
:105A90005DF8047B704780B485B000AF78600B463A
:105AA0007B807B685B69FB607A88FB6813401A0423
:105AB000FB68D9437B880B401A437B689A6100BF1F
:105AC0001437BD465DF8047B7047000080B582B096
:105AD00000AF0346FB80084B5A69FB881340002B3C
